{
  "_format": "hh-sol-artifact-1",
  "contractName": "Auction",
  "sourceName": "contracts/Auction.sol",
  "abi": [
    {
      "inputs": [
        {
          "internalType": "address",
          "name": "_provenanceAddress",
          "type": "address"
        }
      ],
      "stateMutability": "nonpayable",
      "type": "constructor"
    },
    {
      "anonymous": false,
      "inputs": [
        {
          "indexed": true,
          "internalType": "uint256",
          "name": "batchId",
          "type": "uint256"
        },
        {
          "indexed": true,
          "internalType": "address",
          "name": "seller",
          "type": "address"
        },
        {
          "indexed": false,
          "internalType": "uint256",
          "name": "startingPrice",
          "type": "uint256"
        },
        {
          "indexed": false,
          "internalType": "uint256",
          "name": "endTime",
          "type": "uint256"
        }
      ],
      "name": "AuctionCreated",
      "type": "event"
    },
    {
      "anonymous": false,
      "inputs": [
        {
          "indexed": true,
          "internalType": "uint256",
          "name": "batchId",
          "type": "uint256"
        },
        {
          "indexed": false,
          "internalType": "address",
          "name": "winner",
          "type": "address"
        },
        {
          "indexed": false,
          "internalType": "uint256",
          "name": "amount",
          "type": "uint256"
        }
      ],
      "name": "AuctionEnded",
      "type": "event"
    },
    {
      "anonymous": false,
      "inputs": [
        {
          "indexed": true,
          "internalType": "uint256",
          "name": "batchId",
          "type": "uint256"
        },
        {
          "indexed": true,
          "internalType": "address",
          "name": "bidder",
          "type": "address"
        },
        {
          "indexed": false,
          "internalType": "uint256",
          "name": "amount",
          "type": "uint256"
        }
      ],
      "name": "BidPlaced",
      "type": "event"
    },
    {
      "inputs": [
        {
          "internalType": "uint256",
          "name": "",
          "type": "uint256"
        }
      ],
      "name": "auctions",
      "outputs": [
        {
          "internalType": "uint256",
          "name": "batchId",
          "type": "uint256"
        },
        {
          "internalType": "address payable",
          "name": "seller",
          "type": "address"
        },
        {
          "internalType": "uint256",
          "name": "startingPrice",
          "type": "uint256"
        },
        {
          "internalType": "uint256",
          "name": "endTime",
          "type": "uint256"
        },
        {
          "internalType": "address",
          "name": "highestBidder",
          "type": "address"
        },
        {
          "internalType": "uint256",
          "name": "highestBid",
          "type": "uint256"
        },
        {
          "internalType": "bool",
          "name": "started",
          "type": "bool"
        },
        {
          "internalType": "bool",
          "name": "ended",
          "type": "bool"
        }
      ],
      "stateMutability": "view",
      "type": "function"
    },
    {
      "inputs": [
        {
          "internalType": "uint256",
          "name": "_batchId",
          "type": "uint256"
        }
      ],
      "name": "bid",
      "outputs": [],
      "stateMutability": "payable",
      "type": "function"
    },
    {
      "inputs": [
        {
          "internalType": "uint256",
          "name": "_batchId",
          "type": "uint256"
        },
        {
          "internalType": "uint256",
          "name": "_startingPrice",
          "type": "uint256"
        },
        {
          "internalType": "uint256",
          "name": "_duration",
          "type": "uint256"
        }
      ],
      "name": "createAuction",
      "outputs": [],
      "stateMutability": "nonpayable",
      "type": "function"
    },
    {
      "inputs": [
        {
          "internalType": "uint256",
          "name": "_batchId",
          "type": "uint256"
        }
      ],
      "name": "endAuction",
      "outputs": [],
      "stateMutability": "nonpayable",
      "type": "function"
    },
    {
      "inputs": [
        {
          "internalType": "address",
          "name": "",
          "type": "address"
        }
      ],
      "name": "pendingReturns",
      "outputs": [
        {
          "internalType": "uint256",
          "name": "",
          "type": "uint256"
        }
      ],
      "stateMutability": "view",
      "type": "function"
    },
    {
      "inputs": [],
      "name": "provenance",
      "outputs": [
        {
          "internalType": "contract IProvenance",
          "name": "",
          "type": "address"
        }
      ],
      "stateMutability": "view",
      "type": "function"
    },
    {
      "inputs": [],
      "name": "withdraw",
      "outputs": [
        {
          "internalType": "bool",
          "name": "",
          "type": "bool"
        }
      ],
      "stateMutability": "nonpayable",
      "type": "function"
    }
  ],
  "bytecode": "0x60806040523480156200001157600080fd5b50604051620019f9380380620019f9833981810160405281019062000037919062000095565b806000806101000a81548173ffffffffffffffffffffffffffffffffffffffff021916908373ffffffffffffffffffffffffffffffffffffffff160217905550506200010f565b6000815190506200008f81620000f5565b92915050565b600060208284031215620000a857600080fd5b6000620000b8848285016200007e565b91505092915050565b6000620000ce82620000d5565b9050919050565b600073ffffffffffffffffffffffffffffffffffffffff82169050919050565b6200010081620000c1565b81146200010c57600080fd5b50565b6118da806200011f6000396000f3fe6080604052600436106100705760003560e01c8063454a2ab31161004e578063454a2ab314610108578063571a26a014610124578063b9a2de3a14610168578063cda4beef1461019157610070565b80630f7309e81461007557806326b387bb146100a05780633ccfd60b146100dd575b600080fd5b34801561008157600080fd5b5061008a6101ba565b60405161009791906113fc565b60405180910390f35b3480156100ac57600080fd5b506100c760048036038101906100c2919061103a565b6101de565b6040516100d491906114b7565b60405180910390f35b3480156100e957600080fd5b506100f26101f6565b6040516100ff91906113e1565b60405180910390f35b610122600480360381019061011d9190611063565b61031a565b005b34801561013057600080fd5b5061014b60048036038101906101469190611063565b6105d6565b60405161015f989796959493929190611524565b60405180910390f35b34801561017457600080fd5b5061018f600480360381019061018a9190611063565b610678565b005b34801561019d57600080fd5b506101b860048036038101906101b3919061114b565b610afa565b005b60008054906101000a900473ffffffffffffffffffffffffffffffffffffffff1681565b60026020528060005260406000206000915090505481565b600080600260003373ffffffffffffffffffffffffffffffffffffffff1673ffffffffffffffffffffffffffffffffffffffff1681526020019081526020016000205490506000811115610311576000600260003373ffffffffffffffffffffffffffffffffffffffff1673ffffffffffffffffffffffffffffffffffffffff168152602001908152602001600020819055503373ffffffffffffffffffffffffffffffffffffffff166108fc829081150290604051600060405180830381858888f193505050506103105780600260003373ffffffffffffffffffffffffffffffffffffffff1673ffffffffffffffffffffffffffffffffffffffff168152602001908152602001600020819055506000915050610317565b5b60019150505b90565b60006001600083815260200190815260200160002090508060060160009054906101000a900460ff16610382576040517f08c379a000000000000000000000000000000000000000000000000000000000815260040161037990611497565b60405180910390fd5b8060060160019054906101000a900460ff16156103d4576040517f08c379a00000000000000000000000000000000000000000000000000000000081526004016103cb90611437565b60405180910390fd5b8060030154421061041a576040517f08c379a000000000000000000000000000000000000000000000000000000000815260040161041190611437565b60405180910390fd5b80600501543411610460576040517f08c379a000000000000000000000000000000000000000000000000000000000815260040161045790611417565b60405180910390fd5b600073ffffffffffffffffffffffffffffffffffffffff168160040160009054906101000a900473ffffffffffffffffffffffffffffffffffffffff1673ffffffffffffffffffffffffffffffffffffffff1614610537578060050154600260008360040160009054906101000a900473ffffffffffffffffffffffffffffffffffffffff1673ffffffffffffffffffffffffffffffffffffffff1673ffffffffffffffffffffffffffffffffffffffff168152602001908152602001600020600082825461052f9190611695565b925050819055505b338160040160006101000a81548173ffffffffffffffffffffffffffffffffffffffff021916908373ffffffffffffffffffffffffffffffffffffffff1602179055503481600501819055503373ffffffffffffffffffffffffffffffffffffffff16827f0e54eff26401bf69b81b26f60bd85ef47f5d85275c1d268d84f68d6897431c47346040516105ca91906114b7565b60405180910390a35050565b60016020528060005260406000206000915090508060000154908060010160009054906101000a900473ffffffffffffffffffffffffffffffffffffffff16908060020154908060030154908060040160009054906101000a900473ffffffffffffffffffffffffffffffffffffffff16908060050154908060060160009054906101000a900460ff16908060060160019054906101000a900460ff16905088565b60006001600083815260200190815260200160002090508060060160009054906101000a900460ff166106e0576040517f08c379a00000000000000000000000000000000000000000000000000000000081526004016106d790611497565b60405180910390fd5b8060060160019054906101000a900460ff1615610732576040517f08c379a000000000000000000000000000000000000000000000000000000000815260040161072990611437565b60405180910390fd5b8060030154421015610779576040517f08c379a000000000000000000000000000000000000000000000000000000000815260040161077090611477565b60405180910390fd5b60018160060160016101000a81548160ff021916908315150217905550600073ffffffffffffffffffffffffffffffffffffffff168160040160009054906101000a900473ffffffffffffffffffffffffffffffffffffffff1673ffffffffffffffffffffffffffffffffffffffff1614610a095760008054906101000a900473ffffffffffffffffffffffffffffffffffffffff1673ffffffffffffffffffffffffffffffffffffffff166329507f73838360040160009054906101000a900473ffffffffffffffffffffffffffffffffffffffff166040518363ffffffff1660e01b815260040161086d9291906114d2565b600060405180830381600087803b15801561088757600080fd5b505af115801561089b573d6000803e3d6000fd5b5050505060008060009054906101000a900473ffffffffffffffffffffffffffffffffffffffff1673ffffffffffffffffffffffffffffffffffffffff16635ac44282846040518263ffffffff1660e01b81526004016108fb91906114b7565b60006040518083038186803b15801561091357600080fd5b505afa158015610927573d6000803e3d6000fd5b505050506040513d6000823e3d601f19601f82011682018060405250810190610950919061108c565b5050509150508073ffffffffffffffffffffffffffffffffffffffff166108fc83600501549081150290604051600060405180830381858888f193505050501580156109a0573d6000803e3d6000fd5b50827fd2aa34a4fdbbc6dff6a3e56f46e0f3ae2a31d7785ff3487aa5c95c642acea5018360040160009054906101000a900473ffffffffffffffffffffffffffffffffffffffff1684600501546040516109fb9291906113b8565b60405180910390a250610af6565b60008054906101000a900473ffffffffffffffffffffffffffffffffffffffff1673ffffffffffffffffffffffffffffffffffffffff166329507f73838360010160009054906101000a900473ffffffffffffffffffffffffffffffffffffffff166040518363ffffffff1660e01b8152600401610a889291906114fb565b600060405180830381600087803b158015610aa257600080fd5b505af1158015610ab6573d6000803e3d6000fd5b50505050817fd2aa34a4fdbbc6dff6a3e56f46e0f3ae2a31d7785ff3487aa5c95c642acea501600080604051610aed92919061138f565b60405180910390a25b5050565b60008060009054906101000a900473ffffffffffffffffffffffffffffffffffffffff1673ffffffffffffffffffffffffffffffffffffffff16635ac44282856040518263ffffffff1660e01b8152600401610b5691906114b7565b60006040518083038186803b158015610b6e57600080fd5b505afa158015610b82573d6000803e3d6000fd5b505050506040513d6000823e3d601f19601f82011682018060405250810190610bab919061108c565b5093505050503073ffffffffffffffffffffffffffffffffffffffff168160018351610bd791906116eb565b81518110610c0e577f4e487b7100000000000000000000000000000000000000000000000000000000600052603260045260246000fd5b602002602001015173ffffffffffffffffffffffffffffffffffffffff1614610c6c576040517f08c379a0000000000000000000000000000000000000000000000000000000008152600401610c6390611457565b60405180910390fd5b6040518061010001604052808581526020013373ffffffffffffffffffffffffffffffffffffffff1681526020018481526020018342610cac9190611695565b8152602001600073ffffffffffffffffffffffffffffffffffffffff16815260200184815260200160011515815260200160001515815250600160008681526020019081526020016000206000820151816000015560208201518160010160006101000a81548173ffffffffffffffffffffffffffffffffffffffff021916908373ffffffffffffffffffffffffffffffffffffffff160217905550604082015181600201556060820151816003015560808201518160040160006101000a81548173ffffffffffffffffffffffffffffffffffffffff021916908373ffffffffffffffffffffffffffffffffffffffff16021790555060a0820151816005015560c08201518160060160006101000a81548160ff02191690831515021790555060e08201518160060160016101000a81548160ff0219169083151502179055509050503373ffffffffffffffffffffffffffffffffffffffff16847fc9050d42180a61cb0d9ebb8ad118b62fe6eab12cf12ff752c4a0cc7da9ddf627858542610e369190611695565b604051610e449291906115a2565b60405180910390a350505050565b6000610e65610e60846115fc565b6115cb565b90508083825260208201905082856020860282011115610e8457600080fd5b60005b85811015610eb45781610e9a8882610f7d565b845260208401935060208301925050600181019050610e87565b5050509392505050565b6000610ed1610ecc84611628565b6115cb565b90508083825260208201905082856020860282011115610ef057600080fd5b60005b85811015610f205781610f068882611025565b845260208401935060208301925050600181019050610ef3565b5050509392505050565b6000610f3d610f3884611654565b6115cb565b905082815260208101848484011115610f5557600080fd5b610f608482856117e5565b509392505050565b600081359050610f7781611876565b92915050565b600081519050610f8c81611876565b92915050565b600082601f830112610fa357600080fd5b8151610fb3848260208601610e52565b91505092915050565b600082601f830112610fcd57600080fd5b8151610fdd848260208601610ebe565b91505092915050565b600082601f830112610ff757600080fd5b8151611007848260208601610f2a565b91505092915050565b60008135905061101f8161188d565b92915050565b6000815190506110348161188d565b92915050565b60006020828403121561104c57600080fd5b600061105a84828501610f68565b91505092915050565b60006020828403121561107557600080fd5b600061108384828501611010565b91505092915050565b600080600080600060a086880312156110a457600080fd5b60006110b288828901611025565b95505060206110c388828901610f7d565b945050604086015167ffffffffffffffff8111156110e057600080fd5b6110ec88828901610fe6565b935050606086015167ffffffffffffffff81111561110957600080fd5b61111588828901610f92565b925050608086015167ffffffffffffffff81111561113257600080fd5b61113e88828901610fbc565b9150509295509295909350565b60008060006060848603121561116057600080fd5b600061116e86828701611010565b935050602061117f86828701611010565b925050604061119086828701611010565b9150509250925092565b6111a381611779565b82525050565b6111b281611731565b82525050565b6111c18161171f565b82525050565b6111d081611743565b82525050565b6111df8161178b565b82525050565b6111ee816117af565b82525050565b6000611201602b83611684565b91507f426964206d75737420626520686967686572207468616e2063757272656e742060008301527f68696768657374206269640000000000000000000000000000000000000000006020830152604082019050919050565b6000611267601583611684565b91507f41756374696f6e20616c726561647920656e64656400000000000000000000006000830152602082019050919050565b60006112a7602683611684565b91507f436f6e7472616374206973206e6f7420746865206f776e6572206f662074686560008301527f20626174636800000000000000000000000000000000000000000000000000006020830152604082019050919050565b600061130d601983611684565b91507f41756374696f6e20686173206e6f7420656e64656420796574000000000000006000830152602082019050919050565b600061134d601383611684565b91507f41756374696f6e206e6f742073746172746564000000000000000000000000006000830152602082019050919050565b6113898161176f565b82525050565b60006040820190506113a460008301856111b8565b6113b160208301846111e5565b9392505050565b60006040820190506113cd60008301856111b8565b6113da6020830184611380565b9392505050565b60006020820190506113f660008301846111c7565b92915050565b600060208201905061141160008301846111d6565b92915050565b60006020820190508181036000830152611430816111f4565b9050919050565b600060208201905081810360008301526114508161125a565b9050919050565b600060208201905081810360008301526114708161129a565b9050919050565b6000602082019050818103600083015261149081611300565b9050919050565b600060208201905081810360008301526114b081611340565b9050919050565b60006020820190506114cc6000830184611380565b92915050565b60006040820190506114e76000830185611380565b6114f460208301846111b8565b9392505050565b60006040820190506115106000830185611380565b61151d602083018461119a565b9392505050565b60006101008201905061153a600083018b611380565b611547602083018a6111a9565b6115546040830189611380565b6115616060830188611380565b61156e60808301876111b8565b61157b60a0830186611380565b61158860c08301856111c7565b61159560e08301846111c7565b9998505050505050505050565b60006040820190506115b76000830185611380565b6115c46020830184611380565b9392505050565b6000604051905081810181811067ffffffffffffffff821117156115f2576115f1611847565b5b8060405250919050565b600067ffffffffffffffff82111561161757611616611847565b5b602082029050602081019050919050565b600067ffffffffffffffff82111561164357611642611847565b5b602082029050602081019050919050565b600067ffffffffffffffff82111561166f5761166e611847565b5b601f19601f8301169050602081019050919050565b600082825260208201905092915050565b60006116a08261176f565b91506116ab8361176f565b9250827fffffffffffffffffffffffffffffffffffffffffffffffffffffffffffffffff038211156116e0576116df611818565b5b828201905092915050565b60006116f68261176f565b91506117018361176f565b92508282101561171457611713611818565b5b828203905092915050565b600061172a8261174f565b9050919050565b600061173c8261174f565b9050919050565b60008115159050919050565b600073ffffffffffffffffffffffffffffffffffffffff82169050919050565b6000819050919050565b6000611784826117c1565b9050919050565b60006117968261179d565b9050919050565b60006117a88261174f565b9050919050565b60006117ba8261176f565b9050919050565b60006117cc826117d3565b9050919050565b60006117de8261174f565b9050919050565b60005b838110156118035780820151818401526020810190506117e8565b83811115611812576000848401525b50505050565b7f4e487b7100000000000000000000000000000000000000000000000000000000600052601160045260246000fd5b7f4e487b7100000000000000000000000000000000000000000000000000000000600052604160045260246000fd5b61187f8161171f565b811461188a57600080fd5b50565b6118968161176f565b81146118a157600080fd5b5056fea26469706673582212208be41eddf2eec5f53f9f7a7097dc4204c5a2f0c56b00ce4fde9ed97371551eff64736f6c63430008000033",
  "linkReferences": {},
  "deployedLinkReferences": {}
}