{
  "_format": "hh-sol-artifact-1",
  "contractName": "Auction",
  "sourceName": "contracts/Auction.sol",
  "abi": [
    {
      "inputs": [
        {
          "internalType": "address",
          "name": "_provenanceAddress",
          "type": "address"
        }
      ],
      "stateMutability": "nonpayable",
      "type": "constructor"
    },
    {
      "anonymous": false,
      "inputs": [
        {
          "indexed": true,
          "internalType": "uint256",
          "name": "batchId",
          "type": "uint256"
        },
        {
          "indexed": true,
          "internalType": "address",
          "name": "seller",
          "type": "address"
        },
        {
          "indexed": false,
          "internalType": "uint256",
          "name": "startingPrice",
          "type": "uint256"
        },
        {
          "indexed": false,
          "internalType": "uint256",
          "name": "endTime",
          "type": "uint256"
        }
      ],
      "name": "AuctionCreated",
      "type": "event"
    },
    {
      "anonymous": false,
      "inputs": [
        {
          "indexed": true,
          "internalType": "uint256",
          "name": "batchId",
          "type": "uint256"
        },
        {
          "indexed": false,
          "internalType": "address",
          "name": "winner",
          "type": "address"
        },
        {
          "indexed": false,
          "internalType": "uint256",
          "name": "amount",
          "type": "uint256"
        }
      ],
      "name": "AuctionEnded",
      "type": "event"
    },
    {
      "anonymous": false,
      "inputs": [
        {
          "indexed": true,
          "internalType": "uint256",
          "name": "batchId",
          "type": "uint256"
        },
        {
          "indexed": true,
          "internalType": "address",
          "name": "bidder",
          "type": "address"
        },
        {
          "indexed": false,
          "internalType": "uint256",
          "name": "amount",
          "type": "uint256"
        }
      ],
      "name": "BidPlaced",
      "type": "event"
    },
    {
      "inputs": [
        {
          "internalType": "uint256",
          "name": "",
          "type": "uint256"
        }
      ],
      "name": "auctions",
      "outputs": [
        {
          "internalType": "uint256",
          "name": "batchId",
          "type": "uint256"
        },
        {
          "internalType": "address payable",
          "name": "seller",
          "type": "address"
        },
        {
          "internalType": "uint256",
          "name": "startingPrice",
          "type": "uint256"
        },
        {
          "internalType": "uint256",
          "name": "endTime",
          "type": "uint256"
        },
        {
          "internalType": "address",
          "name": "highestBidder",
          "type": "address"
        },
        {
          "internalType": "uint256",
          "name": "highestBid",
          "type": "uint256"
        },
        {
          "internalType": "bool",
          "name": "started",
          "type": "bool"
        },
        {
          "internalType": "bool",
          "name": "ended",
          "type": "bool"
        }
      ],
      "stateMutability": "view",
      "type": "function"
    },
    {
      "inputs": [
        {
          "internalType": "uint256",
          "name": "_batchId",
          "type": "uint256"
        }
      ],
      "name": "bid",
      "outputs": [],
      "stateMutability": "payable",
      "type": "function"
    },
    {
      "inputs": [
        {
          "internalType": "uint256",
          "name": "_batchId",
          "type": "uint256"
        },
        {
          "internalType": "uint256",
          "name": "_startingPrice",
          "type": "uint256"
        },
        {
          "internalType": "uint256",
          "name": "_duration",
          "type": "uint256"
        }
      ],
      "name": "createAuction",
      "outputs": [],
      "stateMutability": "nonpayable",
      "type": "function"
    },
    {
      "inputs": [
        {
          "internalType": "uint256",
          "name": "_batchId",
          "type": "uint256"
        }
      ],
      "name": "endAuction",
      "outputs": [],
      "stateMutability": "nonpayable",
      "type": "function"
    },
    {
      "inputs": [
        {
          "internalType": "address",
          "name": "",
          "type": "address"
        }
      ],
      "name": "pendingReturns",
      "outputs": [
        {
          "internalType": "uint256",
          "name": "",
          "type": "uint256"
        }
      ],
      "stateMutability": "view",
      "type": "function"
    },
    {
      "inputs": [],
      "name": "provenance",
      "outputs": [
        {
          "internalType": "contract IProvenance",
          "name": "",
          "type": "address"
        }
      ],
      "stateMutability": "view",
      "type": "function"
    },
    {
      "inputs": [],
      "name": "withdraw",
      "outputs": [
        {
          "internalType": "bool",
          "name": "",
          "type": "bool"
        }
      ],
      "stateMutability": "nonpayable",
      "type": "function"
    }
  ],
  "bytecode": "0x60806040523480156200001157600080fd5b506040516200196538038062001965833981810160405281019062000037919062000095565b806000806101000a81548173ffffffffffffffffffffffffffffffffffffffff021916908373ffffffffffffffffffffffffffffffffffffffff160217905550506200010f565b6000815190506200008f81620000f5565b92915050565b600060208284031215620000a857600080fd5b6000620000b8848285016200007e565b91505092915050565b6000620000ce82620000d5565b9050919050565b600073ffffffffffffffffffffffffffffffffffffffff82169050919050565b6200010081620000c1565b81146200010c57600080fd5b50565b611846806200011f6000396000f3fe6080604052600436106100705760003560e01c8063454a2ab31161004e578063454a2ab314610108578063571a26a014610124578063b9a2de3a14610168578063cda4beef1461019157610070565b80630f7309e81461007557806326b387bb146100a05780633ccfd60b146100dd575b600080fd5b34801561008157600080fd5b5061008a6101ba565b6040516100979190611368565b60405180910390f35b3480156100ac57600080fd5b506100c760048036038101906100c29190610fa6565b6101de565b6040516100d49190611423565b60405180910390f35b3480156100e957600080fd5b506100f26101f6565b6040516100ff919061134d565b60405180910390f35b610122600480360381019061011d9190610fcf565b61031a565b005b34801561013057600080fd5b5061014b60048036038101906101469190610fcf565b6105d6565b60405161015f989796959493929190611490565b60405180910390f35b34801561017457600080fd5b5061018f600480360381019061018a9190610fcf565b610678565b005b34801561019d57600080fd5b506101b860048036038101906101b391906110b7565b610a66565b005b60008054906101000a900473ffffffffffffffffffffffffffffffffffffffff1681565b60026020528060005260406000206000915090505481565b600080600260003373ffffffffffffffffffffffffffffffffffffffff1673ffffffffffffffffffffffffffffffffffffffff1681526020019081526020016000205490506000811115610311576000600260003373ffffffffffffffffffffffffffffffffffffffff1673ffffffffffffffffffffffffffffffffffffffff168152602001908152602001600020819055503373ffffffffffffffffffffffffffffffffffffffff166108fc829081150290604051600060405180830381858888f193505050506103105780600260003373ffffffffffffffffffffffffffffffffffffffff1673ffffffffffffffffffffffffffffffffffffffff168152602001908152602001600020819055506000915050610317565b5b60019150505b90565b60006001600083815260200190815260200160002090508060060160009054906101000a900460ff16610382576040517f08c379a000000000000000000000000000000000000000000000000000000000815260040161037990611403565b60405180910390fd5b8060060160019054906101000a900460ff16156103d4576040517f08c379a00000000000000000000000000000000000000000000000000000000081526004016103cb906113a3565b60405180910390fd5b8060030154421061041a576040517f08c379a0000000000000000000000000000000000000000000000000000000008152600401610411906113a3565b60405180910390fd5b80600501543411610460576040517f08c379a000000000000000000000000000000000000000000000000000000000815260040161045790611383565b60405180910390fd5b600073ffffffffffffffffffffffffffffffffffffffff168160040160009054906101000a900473ffffffffffffffffffffffffffffffffffffffff1673ffffffffffffffffffffffffffffffffffffffff1614610537578060050154600260008360040160009054906101000a900473ffffffffffffffffffffffffffffffffffffffff1673ffffffffffffffffffffffffffffffffffffffff1673ffffffffffffffffffffffffffffffffffffffff168152602001908152602001600020600082825461052f9190611601565b925050819055505b338160040160006101000a81548173ffffffffffffffffffffffffffffffffffffffff021916908373ffffffffffffffffffffffffffffffffffffffff1602179055503481600501819055503373ffffffffffffffffffffffffffffffffffffffff16827f0e54eff26401bf69b81b26f60bd85ef47f5d85275c1d268d84f68d6897431c47346040516105ca9190611423565b60405180910390a35050565b60016020528060005260406000206000915090508060000154908060010160009054906101000a900473ffffffffffffffffffffffffffffffffffffffff16908060020154908060030154908060040160009054906101000a900473ffffffffffffffffffffffffffffffffffffffff16908060050154908060060160009054906101000a900460ff16908060060160019054906101000a900460ff16905088565b60006001600083815260200190815260200160002090508060060160009054906101000a900460ff166106e0576040517f08c379a00000000000000000000000000000000000000000000000000000000081526004016106d790611403565b60405180910390fd5b8060060160019054906101000a900460ff1615610732576040517f08c379a0000000000000000000000000000000000000000000000000000000008152600401610729906113a3565b60405180910390fd5b8060030154421015610779576040517f08c379a0000000000000000000000000000000000000000000000000000000008152600401610770906113e3565b60405180910390fd5b60018160060160016101000a81548160ff021916908315150217905550600073ffffffffffffffffffffffffffffffffffffffff168160040160009054906101000a900473ffffffffffffffffffffffffffffffffffffffff1673ffffffffffffffffffffffffffffffffffffffff16146109755760008054906101000a900473ffffffffffffffffffffffffffffffffffffffff1673ffffffffffffffffffffffffffffffffffffffff166329507f73838360040160009054906101000a900473ffffffffffffffffffffffffffffffffffffffff166040518363ffffffff1660e01b815260040161086d92919061143e565b600060405180830381600087803b15801561088757600080fd5b505af115801561089b573d6000803e3d6000fd5b505050508060010160009054906101000a900473ffffffffffffffffffffffffffffffffffffffff1673ffffffffffffffffffffffffffffffffffffffff166108fc82600501549081150290604051600060405180830381858888f1935050505015801561090d573d6000803e3d6000fd5b50817fd2aa34a4fdbbc6dff6a3e56f46e0f3ae2a31d7785ff3487aa5c95c642acea5018260040160009054906101000a900473ffffffffffffffffffffffffffffffffffffffff168360050154604051610968929190611324565b60405180910390a2610a62565b60008054906101000a900473ffffffffffffffffffffffffffffffffffffffff1673ffffffffffffffffffffffffffffffffffffffff166329507f73838360010160009054906101000a900473ffffffffffffffffffffffffffffffffffffffff166040518363ffffffff1660e01b81526004016109f4929190611467565b600060405180830381600087803b158015610a0e57600080fd5b505af1158015610a22573d6000803e3d6000fd5b50505050817fd2aa34a4fdbbc6dff6a3e56f46e0f3ae2a31d7785ff3487aa5c95c642acea501600080604051610a599291906112fb565b60405180910390a25b5050565b60008060009054906101000a900473ffffffffffffffffffffffffffffffffffffffff1673ffffffffffffffffffffffffffffffffffffffff16635ac44282856040518263ffffffff1660e01b8152600401610ac29190611423565b60006040518083038186803b158015610ada57600080fd5b505afa158015610aee573d6000803e3d6000fd5b505050506040513d6000823e3d601f19601f82011682018060405250810190610b179190610ff8565b5093505050503073ffffffffffffffffffffffffffffffffffffffff168160018351610b439190611657565b81518110610b7a577f4e487b7100000000000000000000000000000000000000000000000000000000600052603260045260246000fd5b602002602001015173ffffffffffffffffffffffffffffffffffffffff1614610bd8576040517f08c379a0000000000000000000000000000000000000000000000000000000008152600401610bcf906113c3565b60405180910390fd5b6040518061010001604052808581526020013373ffffffffffffffffffffffffffffffffffffffff1681526020018481526020018342610c189190611601565b8152602001600073ffffffffffffffffffffffffffffffffffffffff16815260200184815260200160011515815260200160001515815250600160008681526020019081526020016000206000820151816000015560208201518160010160006101000a81548173ffffffffffffffffffffffffffffffffffffffff021916908373ffffffffffffffffffffffffffffffffffffffff160217905550604082015181600201556060820151816003015560808201518160040160006101000a81548173ffffffffffffffffffffffffffffffffffffffff021916908373ffffffffffffffffffffffffffffffffffffffff16021790555060a0820151816005015560c08201518160060160006101000a81548160ff02191690831515021790555060e08201518160060160016101000a81548160ff0219169083151502179055509050503373ffffffffffffffffffffffffffffffffffffffff16847fc9050d42180a61cb0d9ebb8ad118b62fe6eab12cf12ff752c4a0cc7da9ddf627858542610da29190611601565b604051610db092919061150e565b60405180910390a350505050565b6000610dd1610dcc84611568565b611537565b90508083825260208201905082856020860282011115610df057600080fd5b60005b85811015610e205781610e068882610ee9565b845260208401935060208301925050600181019050610df3565b5050509392505050565b6000610e3d610e3884611594565b611537565b90508083825260208201905082856020860282011115610e5c57600080fd5b60005b85811015610e8c5781610e728882610f91565b845260208401935060208301925050600181019050610e5f565b5050509392505050565b6000610ea9610ea4846115c0565b611537565b905082815260208101848484011115610ec157600080fd5b610ecc848285611751565b509392505050565b600081359050610ee3816117e2565b92915050565b600081519050610ef8816117e2565b92915050565b600082601f830112610f0f57600080fd5b8151610f1f848260208601610dbe565b91505092915050565b600082601f830112610f3957600080fd5b8151610f49848260208601610e2a565b91505092915050565b600082601f830112610f6357600080fd5b8151610f73848260208601610e96565b91505092915050565b600081359050610f8b816117f9565b92915050565b600081519050610fa0816117f9565b92915050565b600060208284031215610fb857600080fd5b6000610fc684828501610ed4565b91505092915050565b600060208284031215610fe157600080fd5b6000610fef84828501610f7c565b91505092915050565b600080600080600060a0868803121561101057600080fd5b600061101e88828901610f91565b955050602061102f88828901610ee9565b945050604086015167ffffffffffffffff81111561104c57600080fd5b61105888828901610f52565b935050606086015167ffffffffffffffff81111561107557600080fd5b61108188828901610efe565b925050608086015167ffffffffffffffff81111561109e57600080fd5b6110aa88828901610f28565b9150509295509295909350565b6000806000606084860312156110cc57600080fd5b60006110da86828701610f7c565b93505060206110eb86828701610f7c565b92505060406110fc86828701610f7c565b9150509250925092565b61110f816116e5565b82525050565b61111e8161169d565b82525050565b61112d8161168b565b82525050565b61113c816116af565b82525050565b61114b816116f7565b82525050565b61115a8161171b565b82525050565b600061116d602b836115f0565b91507f426964206d75737420626520686967686572207468616e2063757272656e742060008301527f68696768657374206269640000000000000000000000000000000000000000006020830152604082019050919050565b60006111d36015836115f0565b91507f41756374696f6e20616c726561647920656e64656400000000000000000000006000830152602082019050919050565b60006112136026836115f0565b91507f436f6e7472616374206973206e6f7420746865206f776e6572206f662074686560008301527f20626174636800000000000000000000000000000000000000000000000000006020830152604082019050919050565b60006112796019836115f0565b91507f41756374696f6e20686173206e6f7420656e64656420796574000000000000006000830152602082019050919050565b60006112b96013836115f0565b91507f41756374696f6e206e6f742073746172746564000000000000000000000000006000830152602082019050919050565b6112f5816116db565b82525050565b60006040820190506113106000830185611124565b61131d6020830184611151565b9392505050565b60006040820190506113396000830185611124565b61134660208301846112ec565b9392505050565b60006020820190506113626000830184611133565b92915050565b600060208201905061137d6000830184611142565b92915050565b6000602082019050818103600083015261139c81611160565b9050919050565b600060208201905081810360008301526113bc816111c6565b9050919050565b600060208201905081810360008301526113dc81611206565b9050919050565b600060208201905081810360008301526113fc8161126c565b9050919050565b6000602082019050818103600083015261141c816112ac565b9050919050565b600060208201905061143860008301846112ec565b92915050565b600060408201905061145360008301856112ec565b6114606020830184611124565b9392505050565b600060408201905061147c60008301856112ec565b6114896020830184611106565b9392505050565b6000610100820190506114a6600083018b6112ec565b6114b3602083018a611115565b6114c060408301896112ec565b6114cd60608301886112ec565b6114da6080830187611124565b6114e760a08301866112ec565b6114f460c0830185611133565b61150160e0830184611133565b9998505050505050505050565b600060408201905061152360008301856112ec565b61153060208301846112ec565b9392505050565b6000604051905081810181811067ffffffffffffffff8211171561155e5761155d6117b3565b5b8060405250919050565b600067ffffffffffffffff821115611583576115826117b3565b5b602082029050602081019050919050565b600067ffffffffffffffff8211156115af576115ae6117b3565b5b602082029050602081019050919050565b600067ffffffffffffffff8211156115db576115da6117b3565b5b601f19601f8301169050602081019050919050565b600082825260208201905092915050565b600061160c826116db565b9150611617836116db565b9250827fffffffffffffffffffffffffffffffffffffffffffffffffffffffffffffffff0382111561164c5761164b611784565b5b828201905092915050565b6000611662826116db565b915061166d836116db565b9250828210156116805761167f611784565b5b828203905092915050565b6000611696826116bb565b9050919050565b60006116a8826116bb565b9050919050565b60008115159050919050565b600073ffffffffffffffffffffffffffffffffffffffff82169050919050565b6000819050919050565b60006116f08261172d565b9050919050565b600061170282611709565b9050919050565b6000611714826116bb565b9050919050565b6000611726826116db565b9050919050565b60006117388261173f565b9050919050565b600061174a826116bb565b9050919050565b60005b8381101561176f578082015181840152602081019050611754565b8381111561177e576000848401525b50505050565b7f4e487b7100000000000000000000000000000000000000000000000000000000600052601160045260246000fd5b7f4e487b7100000000000000000000000000000000000000000000000000000000600052604160045260246000fd5b6117eb8161168b565b81146117f657600080fd5b50565b611802816116db565b811461180d57600080fd5b5056fea26469706673582212206afd1265e585a2294141a094cfb4806fd3ca5c27342fb0c39d4681b4fe7d9bf764736f6c63430008000033",
  "linkReferences": {},
  "deployedLinkReferences": {}
}