{
  "_format": "hh-sol-artifact-1",
  "contractName": "Provenance",
  "sourceName": "contracts/Provenance.sol",
  "abi": [
    {
      "anonymous": false,
      "inputs": [
        {
          "indexed": true,
          "internalType": "uint256",
          "name": "id",
          "type": "uint256"
        },
        {
          "indexed": true,
          "internalType": "address",
          "name": "farmer",
          "type": "address"
        }
      ],
      "name": "BatchRegistered",
      "type": "event"
    },
    {
      "anonymous": false,
      "inputs": [
        {
          "indexed": true,
          "internalType": "uint256",
          "name": "id",
          "type": "uint256"
        },
        {
          "indexed": true,
          "internalType": "address",
          "name": "from",
          "type": "address"
        },
        {
          "indexed": true,
          "internalType": "address",
          "name": "to",
          "type": "address"
        }
      ],
      "name": "OwnershipTransferred",
      "type": "event"
    },
    {
      "inputs": [],
      "name": "batchCount",
      "outputs": [
        {
          "internalType": "uint256",
          "name": "",
          "type": "uint256"
        }
      ],
      "stateMutability": "view",
      "type": "function"
    },
    {
      "inputs": [
        {
          "internalType": "uint256",
          "name": "",
          "type": "uint256"
        }
      ],
      "name": "batches",
      "outputs": [
        {
          "internalType": "uint256",
          "name": "id",
          "type": "uint256"
        },
        {
          "internalType": "address",
          "name": "farmer",
          "type": "address"
        },
        {
          "internalType": "string",
          "name": "ipfsHash",
          "type": "string"
        }
      ],
      "stateMutability": "view",
      "type": "function"
    },
    {
      "inputs": [
        {
          "internalType": "uint256",
          "name": "_id",
          "type": "uint256"
        }
      ],
      "name": "getBatch",
      "outputs": [
        {
          "internalType": "uint256",
          "name": "",
          "type": "uint256"
        },
        {
          "internalType": "address",
          "name": "",
          "type": "address"
        },
        {
          "internalType": "string",
          "name": "",
          "type": "string"
        },
        {
          "internalType": "address[]",
          "name": "",
          "type": "address[]"
        },
        {
          "internalType": "uint256[]",
          "name": "",
          "type": "uint256[]"
        }
      ],
      "stateMutability": "view",
      "type": "function"
    },
    {
      "inputs": [
        {
          "internalType": "string",
          "name": "_ipfsHash",
          "type": "string"
        }
      ],
      "name": "registerBatch",
      "outputs": [],
      "stateMutability": "nonpayable",
      "type": "function"
    },
    {
      "inputs": [
        {
          "internalType": "uint256",
          "name": "_id",
          "type": "uint256"
        },
        {
          "internalType": "address",
          "name": "_to",
          "type": "address"
        }
      ],
      "name": "transferOwnership",
      "outputs": [],
      "stateMutability": "nonpayable",
      "type": "function"
    }
  ],
  "bytecode": "0x608060405234801561001057600080fd5b50610fec806100206000396000f3fe608060405234801561001057600080fd5b50600436106100575760003560e01c806306f130561461005c57806329507f731461007a5780635ac4428214610096578063b32c4d8d146100ca578063bd293850146100fc575b600080fd5b610064610118565b6040516100719190610c0d565b60405180910390f35b610094600480360381019061008f919061098a565b61011e565b005b6100b060048036038101906100ab9190610961565b610389565b6040516100c1959493929190610c66565b60405180910390f35b6100e460048036038101906100df9190610961565b6105a8565b6040516100f393929190610c28565b60405180910390f35b61011660048036038101906101119190610920565b61067a565b005b60015481565b60008211801561013057506001548211155b61016f576040517f08c379a000000000000000000000000000000000000000000000000000000000815260040161016690610bcd565b60405180910390fd5b3373ffffffffffffffffffffffffffffffffffffffff166000808481526020019081526020016000206003016001600080868152602001908152602001600020600301805490506101c09190610dbd565b815481106101f7577f4e487b7100000000000000000000000000000000000000000000000000000000600052603260045260246000fd5b9060005260206000200160009054906101000a900473ffffffffffffffffffffffffffffffffffffffff1673ffffffffffffffffffffffffffffffffffffffff1614610278576040517f08c379a000000000000000000000000000000000000000000000000000000000815260040161026f90610bed565b60405180910390fd5b600080838152602001908152602001600020600301819080600181540180825580915050600190039060005260206000200160009091909190916101000a81548173ffffffffffffffffffffffffffffffffffffffff021916908373ffffffffffffffffffffffffffffffffffffffff1602179055506000808381526020019081526020016000206004014290806001815401808255809150506001900390600052602060002001600090919091909150558073ffffffffffffffffffffffffffffffffffffffff163373ffffffffffffffffffffffffffffffffffffffff16837f16b85f49bf01212961345d3016c9a531894accf62eb7680f2045d79185cc0ec060405160405180910390a45050565b60008060608060606000861180156103a357506001548611155b6103e2576040517f08c379a00000000000000000000000000000000000000000000000000000000081526004016103d990610bcd565b60405180910390fd5b6000806000888152602001908152602001600020905080600001548160010160009054906101000a900473ffffffffffffffffffffffffffffffffffffffff1682600201836003018460040182805461043a90610e6f565b80601f016020809104026020016040519081016040528092919081815260200182805461046690610e6f565b80156104b35780601f10610488576101008083540402835291602001916104b3565b820191906000526020600020905b81548152906001019060200180831161049657829003601f168201915b505050505092508180548060200260200160405190810160405280929190818152602001828054801561053b57602002820191906000526020600020905b8160009054906101000a900473ffffffffffffffffffffffffffffffffffffffff1673ffffffffffffffffffffffffffffffffffffffff16815260200190600101908083116104f1575b505050505091508080548060200260200160405190810160405280929190818152602001828054801561058d57602002820191906000526020600020905b815481526020019060010190808311610579575b50505050509050955095509550955095505091939590929450565b60006020528060005260406000206000915090508060000154908060010160009054906101000a900473ffffffffffffffffffffffffffffffffffffffff16908060020180546105f790610e6f565b80601f016020809104026020016040519081016040528092919081815260200182805461062390610e6f565b80156106705780601f1061064557610100808354040283529160200191610670565b820191906000526020600020905b81548152906001019060200180831161065357829003601f168201915b5050505050905083565b6001600081548092919061068d90610ea1565b91905055506000806000600154815260200190815260200160002090506001548160000181905550338160010160006101000a81548173ffffffffffffffffffffffffffffffffffffffff021916908373ffffffffffffffffffffffffffffffffffffffff160217905550818160020190805190602001906107109291906107eb565b5080600301339080600181540180825580915050600190039060005260206000200160009091909190916101000a81548173ffffffffffffffffffffffffffffffffffffffff021916908373ffffffffffffffffffffffffffffffffffffffff160217905550806004014290806001815401808255809150506001900390600052602060002001600090919091909150553373ffffffffffffffffffffffffffffffffffffffff166001547f38d48d478ab5d7ee925562ed733fa2cb273033dddd953fb665168102fa3d3e0260405160405180910390a35050565b8280546107f790610e6f565b90600052602060002090601f0160209004810192826108195760008555610860565b82601f1061083257805160ff1916838001178555610860565b82800160010185558215610860579182015b8281111561085f578251825591602001919060010190610844565b5b50905061086d9190610871565b5090565b5b8082111561088a576000816000905550600101610872565b5090565b60006108a161089c84610cff565b610cce565b9050828152602081018484840111156108b957600080fd5b6108c4848285610e2d565b509392505050565b6000813590506108db81610f88565b92915050565b600082601f8301126108f257600080fd5b813561090284826020860161088e565b91505092915050565b60008135905061091a81610f9f565b92915050565b60006020828403121561093257600080fd5b600082013567ffffffffffffffff81111561094c57600080fd5b610958848285016108e1565b91505092915050565b60006020828403121561097357600080fd5b60006109818482850161090b565b91505092915050565b6000806040838503121561099d57600080fd5b60006109ab8582860161090b565b92505060206109bc858286016108cc565b9150509250929050565b60006109d283836109f6565b60208301905092915050565b60006109ea8383610baf565b60208301905092915050565b6109ff81610df1565b82525050565b610a0e81610df1565b82525050565b6000610a1f82610d4f565b610a298185610d8a565b9350610a3483610d2f565b8060005b83811015610a65578151610a4c88826109c6565b9750610a5783610d70565b925050600181019050610a38565b5085935050505092915050565b6000610a7d82610d5a565b610a878185610d9b565b9350610a9283610d3f565b8060005b83811015610ac3578151610aaa88826109de565b9750610ab583610d7d565b925050600181019050610a96565b5085935050505092915050565b6000610adb82610d65565b610ae58185610dac565b9350610af5818560208601610e3c565b610afe81610f77565b840191505092915050565b6000610b16601483610dac565b91507f426174636820646f6573206e6f742065786973740000000000000000000000006000830152602082019050919050565b6000610b56602d83610dac565b91507f4f6e6c79207468652063757272656e74206f776e65722063616e207472616e7360008301527f666572206f776e657273686970000000000000000000000000000000000000006020830152604082019050919050565b610bb881610e23565b82525050565b610bc781610e23565b82525050565b60006020820190508181036000830152610be681610b09565b9050919050565b60006020820190508181036000830152610c0681610b49565b9050919050565b6000602082019050610c226000830184610bbe565b92915050565b6000606082019050610c3d6000830186610bbe565b610c4a6020830185610a05565b8181036040830152610c5c8184610ad0565b9050949350505050565b600060a082019050610c7b6000830188610bbe565b610c886020830187610a05565b8181036040830152610c9a8186610ad0565b90508181036060830152610cae8185610a14565b90508181036080830152610cc28184610a72565b90509695505050505050565b6000604051905081810181811067ffffffffffffffff82111715610cf557610cf4610f48565b5b8060405250919050565b600067ffffffffffffffff821115610d1a57610d19610f48565b5b601f19601f8301169050602081019050919050565b6000819050602082019050919050565b6000819050602082019050919050565b600081519050919050565b600081519050919050565b600081519050919050565b6000602082019050919050565b6000602082019050919050565b600082825260208201905092915050565b600082825260208201905092915050565b600082825260208201905092915050565b6000610dc882610e23565b9150610dd383610e23565b925082821015610de657610de5610eea565b5b828203905092915050565b6000610dfc82610e03565b9050919050565b600073ffffffffffffffffffffffffffffffffffffffff82169050919050565b6000819050919050565b82818337600083830152505050565b60005b83811015610e5a578082015181840152602081019050610e3f565b83811115610e69576000848401525b50505050565b60006002820490506001821680610e8757607f821691505b60208210811415610e9b57610e9a610f19565b5b50919050565b6000610eac82610e23565b91507fffffffffffffffffffffffffffffffffffffffffffffffffffffffffffffffff821415610edf57610ede610eea565b5b600182019050919050565b7f4e487b7100000000000000000000000000000000000000000000000000000000600052601160045260246000fd5b7f4e487b7100000000000000000000000000000000000000000000000000000000600052602260045260246000fd5b7f4e487b7100000000000000000000000000000000000000000000000000000000600052604160045260246000fd5b6000601f19601f8301169050919050565b610f9181610df1565b8114610f9c57600080fd5b50565b610fa881610e23565b8114610fb357600080fd5b5056fea2646970667358221220226e62d161c06110ab3ed5e4d46bc16e457cbeeb44948470b1b3ca5cfd81bc7464736f6c63430008000033",
  "linkReferences": {},
  "deployedLinkReferences": {}
}